:100000000C9435010C9466010C9466010C94660105
:100010000C9466010C9466010C9466010C946601C4
:100020000C9466010C9466010C9466010C946601B4
:100030000C9466010C9466010C9466010C946601A4
:100040000C9466010C9466010C9466010C94660194
:100050000C9466010C9466010C9466010C942506C0
:100060000C9466010C9466010C9466010C94660174
:100070000C9466010C9466010C9466010C94660164
:100080000C9466010C9466010C9466010C94660154
:100090000C9466010C9466010C9466010C94660144
:1000A0000C9466010C9466010C9466010C94660134
:1000B0000C9466010C9466010C9466010C94660124
:1000C0000C9466010C9466010C9466010C94660114
:1000D0000C9466010C9466010C9466010C94660104
:1000E0000C9466010C9450020C94750A0C94540202
:1000F0000C9486020C9429030C9461020C948503E1
:100100000C9483040C9479020C9487020C94FB01E8
:100110000C9465020C9484030C94B8020C946F0246
:100120000C94E9020C946B020C948B020C947302F5
:100130000C9458020C945B020C9446020C947D02C1
:100140000C9481020C944C02000021002400270032
:100150002A002D00300033000101000004010701D6
:100160000A0100002200250028002B002E0031008B
:10017000340002010000050108010B01000020000D
:100180002300260029002C002F003200000100006F
:10019000030106010901050505050705080808080A
:1001A000020202020A0A080804040404010101010F
:1001B000010101010303030303030303040707070A
:1001C0000C0C0C0C0C0C0C0C0202020206060606AF
:1001D000060606060B0B0B0B0B0B0B0B010210207C
:1001E000200808102040102040800201020108046D
:1001F0000201010204081020408080402010080401
:100200000201800402018040201008040201080459
:10021000020101020408102040800102040810209D
:10022000408000000A0B02090C0D0E0807030401B0
:1002300000000000000000000000000000000000BE
:10024000000000000000000000000000000012118B
:10025000100000000000000000000000000000008E
:100260000000000000000000750A11241FBECFEF3F
:10027000D1E2DEBFCDBF00E00CBF13E0A0E0B2E0F2
:10028000ECE6FBE100E00BBF02C007900D92A43248
:10029000B107D9F723E0A4E2B3E001C01D92AA3E62
:1002A000B207E1F711E0C5E3D1E000E006C0219715
:1002B0000109802FFE010E94AC0DC433D10780E0FC
:1002C0000807A9F70E946F060C94B40D0C94000067
:1002D00096E0899FD0011124AD59BC4F90967C9334
:1002E0006E935F9791E091969C939197E091D003E4
:1002F000F091D1039091CF03992339F0309751F0C9
:10030000811108C080917F031994309719F05C9691
:100310008C91FACF0895CF92DF92EF92FF920F93D4
:100320001F9396E0899FF0011124ED59FC4F11A213
:10033000278D30A12130310551F178F0223031057F
:1003400009F451C02330310509F452C01F910F91B7
:10035000FF90EF90DF90CF9008956623B9F361E0AE
:1003600070E00E9468012FB7F89480915F0390912C
:100370006003A0916103B09162032FBF8093BB0320
:100380009093BC03A093BD03B093BE03DFCF9FB790
:10039000F894C0905F03D0906003E0906103F09008
:1003A00062039FBF0091BB031091BC032091BD036A
:1003B0003091BE03C01AD10AE20AF30A0091CD03BC
:1003C0001091CE0330E020E00C151D052E053F05F1
:1003D00050F462E070E01F910F91FF90EF90DF907A
:1003E000CF900C9468016111B1CF63E070E0F3CF5E
:1003F00070E060E0F0CFAF92BF92CF92DF92EF92C9
:10040000FF920F931F93CF93DF936C017B018B01BE
:10041000040F151FEB015E01AE18BF08C017D1070E
:1004200059F06991D601ED91FC910190F081E02D98
:10043000C6011995892B79F7C501DF91CF911F91DD
:100440000F91FF90EF90DF90CF90BF90AF90089505
:100450008150823108F05AC0E82FF0E08827EC5C28
:10046000FD4F8F4F0C94AC0D5402580246024C02C3
:10047000500286025B02610265026B026F02730228
:1004800079027D028602810287028B0280918000C0
:100490008F77809380000895809180008F7DF9CFC1
:1004A00080918000877FF5CF84B58F7784BD0895D4
:1004B00084B58F7DFBCF8091B0008F778093B000A3
:1004C00008958091B0008F7DF9CF809190008F7753
:1004D000809390000895809190008F7DF9CF809156
:1004E0009000877FF5CF8091A0008F778093A00048
:1004F00008958091A0008F7DF9CF8091A000877F23
:10050000F5CF809120018F7780932001089580910D
:1005100020018F7DF9CF80912001877FF5CFCF9388
:10052000DF93282F30E0F901EE5DFD4F8491F90152
:10053000E452FE4FD491F901EA56FE4FC491CC2308
:10054000A1F081110E942802EC2FF0E0EE0FFF1FB6
:10055000E458FE4FA591B491EC91ED2381E090E039
:1005600009F480E0DF91CF91089580E090E0FACF28
:10057000862F0C948F021F93CF93DF93282F30E0A8
:10058000F901EE5DFD4F8491F901E452FE4FD491E3
:10059000F901EA56FE4FC491CC23A9F0162F811120
:1005A0000E942802EC2FF0E0EE0FFF1FEE59FE4FE5
:1005B000A591B4918FB7F894EC91111108C0D09522
:1005C000DE23DC938FBFDF91CF911F910895DE2B47
:1005D000F8CF862F642F0C94BB02CF93DF9390E06B
:1005E000FC01E452FE4F24918A569E4FFC018491F7
:1005F0008823C9F090E0880F991FFC01E85BFE4F4B
:10060000A591B491FC01EE59FE4FC591D4916111B1
:100610000DC09FB7F8948C91209582238C9388818C
:10062000282328839FBFDF91CF910895623051F432
:100630009FB7F8943C91822F809583238C93E88117
:100640002E2BEFCF8FB7F894EC912E2B2C938FBFDE
:10065000EACF862F642F0C94ED023FB7F894809177
:10066000250390912603A0912703B091280326B576
:10067000A89B05C02F3F19F00196A11DB11D3FBFDA
:10068000BA2FA92F982F8827BC01CD01620F711DA9
:10069000811D911D42E0660F771F881F991F4A95A3
:1006A000D1F708958F929F92AF92BF92CF92DF922F
:1006B000EF92FF924B015C010E942D036B017C01C4
:1006C0000E942D036C197D098E099F09683E7340B5
:1006D00081059105A8F321E0821A9108A108B108CB
:1006E00088EEC80E83E0D81EE11CF11C8114910431
:1006F000A104B10429F7FF90EF90DF90CF90BF9055
:10070000AF909F908F900895089590E080E00895B5
:10071000FB0101900020E9F73197AF01461B570B11
:100720000C94FB018F929F92AF92BF920F931F93F5
:10073000CF93DF93CDB7DEB7A1970FB6F894DEBFA6
:100740000FBECDBF19A2423008F44AE08E010F5D02
:100750001F4F842E912CB12CA12CA50194010E9435
:100760008A0DE62FB901CA01EA3004F5E05DD8012F
:10077000EE938D01232B242B252B79F790E080E03D
:10078000109729F0BD0187E493E00E948803A196A9
:100790000FB6F894DEBF0FBECDBFDF91CF911F9192
:1007A0000F91BF90AF909F908F900895E95CDFCF3D
:1007B000CF93DF93BC0182ED93E00E948803EC01AC
:1007C00069E272E082ED93E00E9488038C0F9D1F26
:1007D000DF91CF9108950C948803CF93DF93EC01C0
:1007E00060E08E810E94BB0261E08E810E94BB02AC
:1007F00060E08E810E94BB028BE891E00197F1F7E7
:10080000DF91CF910895CF92DF92EF92FF920F93F5
:100810001F93CF93DF936C017C0187E0E80EF11CFE
:10082000D0E0C0E0062F10E0B8010C2E02C0759594
:1008300067950A94E2F76170F70181917F010E9448
:10084000BB022196C430D10579F7C601DF91CF9163
:100850001F910F91FF90EF90DF90CF900C94ED03DC
:10086000CF92DF92EF92FF920F931F93CF93DF937C
:10087000EC01F62E642F8C810E94BB028D818F3F8C
:1008800019F060E00E94BB020F2D10E08F8584FFFD
:1008900025C06E0187E0C80ED11CF12CE12CB801F7
:1008A0000E2C02C0759567950A94E2F76170F60107
:1008B00081916F010E94BB02FFEFEF1AFF0A88E0EF
:1008C000E816F10461F7CE01DF91CF911F910F91EE
:1008D000FF90EF90DF90CF900C94ED03B80184E08F
:1008E000759567958A95E1F7CE010E9403046F2DF7
:1008F000CE01DF91CF911F910F91FF90EF90DF908C
:10090000CF900C94030441E00E94300481E090E019
:1009100008954F925F926F927F928F929F92AF92C3
:10092000BF92CF92DF92EF92FF92CF93DF936B0152
:100930007C01AC019B010E94850D6CE272E081118B
:1009400026C046015701E894B7F82FEF3FEF4FE775
:100950005FE7C501B4010E94850D81110CC02FEF26
:100960003FEF4FE75FE7C501B4010E94BB0B60E3B7
:1009700072E0181664F02FEF3FEF4FE75FE4C70116
:10098000B6010E94130D1816A4F464E372E087E424
:1009900093E0DF91CF91FF90EF90DF90CF90BF90E9
:1009A000AF909F908F907F906F905F904F900C943E
:1009B00088032FEF3FEF4FE75FECC701B6010E94BE
:1009C000BB0B87FDE2CF20E030E0A901C701B601F3
:1009D0000E94BB0BD0E0C0E087FF0CC041E06DE29D
:1009E00087E493E00E943004F7FAF094F7F8F0946B
:1009F000C1E0D0E02AE037ED43EA5BE3C701B6018E
:100A00000E944F0B4B015C010E94320C6B017C0178
:100A10000E94610C9B01AC01C501B4010E944E0B08
:100A20004B015C014AE0C701B6010E9492037C01C0
:100A3000EC0EFD1E41E06EE287E493E00E9430047C
:100A40008FEFE81AF80A20E030E040E251E4C501F7
:100A5000B4010E94180D2B013C010E94320C4B0185
:100A6000B12CA12C4AE0C501B4010E949203E80E0A
:100A7000F91EC501B4010E94610C9B01AC01C301C8
:100A8000B2010E944E0B20E030E040E251E40E94AF
:100A9000180D0E94320C90E080E04AE00E94920320
:100AA0008E0D9F1DDF91CF91FF90EF90DF90CF9043
:100AB000BF90AF909F908F907F906F905F904F907E
:100AC000089540E00C943004FC012389421710F093
:100AD0004FEF420FFC01E40FF11D2489620F6068A3
:100AE0000C94610540E060E082ED93E00E946405B3
:100AF00088E392E00E94D80341E065E082ED93E054
:100B00000E94640580E492E00C94D80361E00E94A6
:100B100061058BE39FE10197F1F708950F931F9310
:100B2000CF93DF93EC01623019F48F8588608F8753
:100B30006B8B1C8A80E48D8B80E18E8B80E58F8BA4
:100B400061E08C810E94ED028D818F3F19F061E0A0
:100B50000E94ED0261E08E810E94ED028E019801FB
:100B60002C1B3D0B8F8584FD0DC084E090E00F5F52
:100B70001F4F281739074CF461E0F80186810E9465
:100B8000ED02EDCF88E090E0F2CF8BE39DE001979E
:100B9000F1F760E08C810E94BB0260E08E810E94D0
:100BA000BB028D818F3F19F060E00E94BB026F8510
:100BB00064FD34C063E0CE010E9403040BE416E43C
:100BC000C8010197F1F763E0CE010E940304C80158
:100BD0000197F1F763E0CE010E94030483E592E000
:100BE0000197F1F762E0CE010E9403046F85606215
:100BF000CE010E94610584E0888B6CE0CE010E94EA
:100C00006105CE010E94860582E0898B66E0CE01F7
:100C1000DF91CF911F910F910C9461056062CE011D
:100C20000E9461058BE496E40197F1F76F8560629D
:100C3000CE010E94610583E592E00197F1F76F858F
:100C40006062CE010E946105D1CF1F920F920FB654
:100C50000F9211242F933F938F939F93AF93BF9342
:100C600080915F0390916003A0916103B091620352
:100C70003091240323E0230F2D3758F50196A11D51
:100C8000B11D2093240380935F0390936003A0938E
:100C90006103B09362038091250390912603A09194
:100CA0002703B09128030196A11DB11D8093250350
:100CB00090932603A0932703B0932803BF91AF918D
:100CC0009F918F913F912F910F900FBE0F901F908A
:100CD000189526E8230F0296A11DB11DD2CF789456
:100CE00084B5826084BD84B5816084BD85B5826031
:100CF00085BD85B5816085BD80916E0081608093E2
:100D00006E0010928100809181008260809381004A
:100D1000809181008160809381008091800081605A
:100D2000809380008091B10084608093B1008091B5
:100D3000B00081608093B0008091910082608093C8
:100D4000910080919100816080939100809190004A
:100D50008160809390008091A10082608093A100C7
:100D60008091A10081608093A1008091A0008160AA
:100D70008093A00080912101826080932101809165
:100D80002101816080932101809120018160809305
:100D9000200180917A00846080937A0080917A00AB
:100DA000826080937A0080917A00816080937A00DB
:100DB00080917A00806880937A001092C10062E08E
:100DC00086E30E94ED0262E087E30E94ED0262E0AA
:100DD00082E00E94ED0261E087E10E94ED0261E0A5
:100DE00088E10E94ED0261E089E10E94ED0261E08C
:100DF00086E10E94ED0262E087E493E00E948E05A6
:100E000062E082ED93E00E948E0562E08BE293E067
:100E10000E948E0540E060E08BE293E00E94640552
:100E200068E472E08BE293E00E94EB0341E064E04F
:100E30008BE293E00E94640567E572E08BE293E049
:100E40000E94EB0368EE73E080E090E00E945203A2
:100E50008BE293E00E94860564E670E080E090E01B
:100E60000E945203812C912C5401839422242A94B1
:100E7000322C50E0652E50E0752E86E30E948F02E2
:100E80008C0182E00E948F02EC0180917B00877FC1
:100E900080937B0051E450937C0080917A008064C1
:100EA00080937A0080917A0086FDFCCF8091780053
:100EB00060917900762F682F072E000C880B990B14
:100EC0000E94630C20E030E040E85AE30E94180DD5
:100ED00020E030E44CE955E40E94180D20E030E0B9
:100EE00040E251E40E94C00B6093430370934403BB
:100EF00080934503909346030130110509F0ECC03F
:100F000061E086E10E94BB0240E065E08BE293E095
:100F10000E94640561E672E08BE293E00E94EB03BD
:100F200041E063E08BE293E00E94640567E672E0D3
:100F30008BE293E00E94EB0340E060E087E493E003
:100F40000E9464056FE672E087E493E00E94EB0381
:100F500041E063E087E493E00E94640561E872E0A9
:100F600087E493E00E94EB0364E670E080E090E0A9
:100F70000E9452038BE293E00E94860564E670E0D3
:100F800080E090E00E945203219709F0AAC061E03E
:100F900086E10E94BB0261E089E10E94BB0240E061
:100FA00065E08BE293E00E9464056AE872E08BE200
:100FB00093E00E94EB0341E063E08BE293E00E9448
:100FC000640562E972E08BE293E00E94EB0364E661
:100FD00070E080E090E00E9452038BE293E00E9478
:100FE000860564E670E080E090E00E945203C090C5
:100FF0004303D0904403E0904503F090460320E083
:1010000030E040EF51E4C701B6010E94130D1816FD
:101010000CF070C040E060E087E493E00E9464055B
:101020006CE972E087E493E00E94EB0341E063E047
:1010300087E493E00E946405609143037091440348
:1010400080914503909146030E9489046DEA72E005
:1010500087E493E00E94EB038091290390912A0397
:10106000892B11F40E94720581E08093CF038FB722
:10107000F89440915F035091600360916103709117
:1010800062038FBF8091BF039091C003A091C10301
:10109000B091C203481B590B6A0B7B0B8091CB03A9
:1010A0009091CC03B0E0A0E084179507A607B7079E
:1010B00008F053C1C0E08091C903C81708F04BC0C5
:1010C000E091C503F091C603EC0FF11D62E0808151
:1010D0000E94ED02CF5FEFCF60E086E10E94BB028D
:1010E00053CF60E086E10E94BB0260E089E10E948C
:1010F000BB027DCF20E030E040EA51E4C701B601F9
:101100000E94BB0B87FF09C040E060E087E493E0EA
:101110000E94640563EB72E085CF20E030E040EA96
:1011200051E4C701B6010E94130D87FD95CF20E061
:1011300030E040EF51E4C701B6010E94BB0B181626
:101140000CF48ACF40E060E087E493E00E946405FD
:1011500064EC72E067CF512C8091CA03581608F0F6
:101160005FC0052D10E0E091C703F091C803E00FC8
:10117000F11F61E080810E94ED02E091C703F091D0
:10118000C803E00FF11F60E080810E94BB02D5011F
:10119000C401052C04C0880F991FAA1FBB1F0A9405
:1011A000D2F76C017C01E094F094412C8091C9034A
:1011B0004816F8F4C42DD0E0E091C503F091C603C1
:1011C000EC0FFD1F80810E948F022496CC0FDD1F43
:1011D000CD59DC4F892B41F4888199818C299D2937
:1011E000998388834394E2CF888199818E219F21BE
:1011F000F7CFE091C703F091C803E00FF11F61E062
:1012000080810E94BB028091C7039091C803080FA0
:10121000191F60E0F80180810E94ED0253949CCF79
:1012200003E613E0E8018F8D98A1892B21F41C8E31
:101230003E8E2D8E19A22696F3E0CF39DF0799F75F
:10124000F12C8091C903F81608F053C0E12CCF2C83
:10125000D12CCC0CDD1CC60185599C4F6C01209112
:10126000CA03E21608F043C0F601608171810E2CBA
:1012700002C0769567950A94E2F7F29E90011124D8
:101280002E0D311DE3E6F3E080E0458D568D2417E9
:10129000350709F428C18F5F36968A30B1F760FFB1
:1012A00024C0E3E6F3E090E080E0448D411118C0F3
:1012B000E091C303F091C403E20FF31F408156E0B5
:1012C000589FF001599FF00D1124ED59FC4F448FA8
:1012D000368F258F10A2178E61E00E948B0105C00A
:1012E000019636968A30910501F7E394B8CFF394CE
:1012F000A8CF80E0F80191A19111892F0A5F1F4FBB
:10130000C017D107B9F79FB7F89440915F03509188
:10131000600360916103709162039FBF4093BF03BC
:101320005093C0036093C1037093C2038823A9F054
:1013300080918403882389F08091820390918303B4
:10134000019759F410917F0311110AC061147104BF
:1013500009F493CD0E94000090CD1092CF03F6CFF8
:1013600082ED93E00E94860540E060E082ED93E02C
:101370000E94640565ED72E082ED93E00E94EB034C
:1013800041E067E082ED93E00E94640561EB72E06A
:1013900082ED93E00E94EB0341E067E082ED93E091
:1013A0000E946405D0E0C0E08091290390912A0357
:1013B0008C179D0744F06DED72E082ED93E00E9482
:1013C000EB032196F1CFFC01E152FD4F2081211367
:1013D00045C0019690932A0380932903049709F04E
:1013E000B5CF61E088E10E94BB0260E087E10E9426
:1013F000BB0240E060E082ED93E00E94640581EB77
:1014000092E00E94D80340E061E082ED93E00E9408
:10141000640564EE72E082ED93E00E94EB0341E02C
:1014200064E082ED93E00E94640584EF92E00E9404
:10143000D80364E670E080E090E00E94520382ED01
:1014400093E00E94860560E088E10E94BB020E9452
:10145000720510922A031092290378CF64E670E097
:1014600080E090E00E94520382ED93E00E948605A6
:1014700040E061E082ED93E00E94640565E073E086
:1014800082ED93E00E94EB0361E087E10E94BB02E2
:1014900041E06FE082ED93E00E94640581EB92E011
:1014A0000E94D80341E060E082ED93E00E94640571
:1014B00082E193E00E94D80341E06DE082ED93E089
:1014C0000E94640581EB92E00E94D80364E670E01C
:1014D00080E090E00E94520382ED93E00E94860536
:1014E00060E087E1B2CF6170F8CECF92DF92FF92D9
:1014F0000F931F93CF93DF9310924A0310924903E7
:1015000081E2C82E82E0D82ED0924803C0924703D1
:1015100088E280934B03FF24FA94F0924C0389E213
:1015200080934D030AE200934E031BE210934F0396
:10153000DCE2D0935003CDE2C093510310925203EA
:1015400010925303109254031092550310925603B5
:1015500061E087E493E00E948E051092D50310921B
:10156000D403D092D303C092D20384E28093D603F3
:10157000F092D70385E28093D8030093D9031093A8
:10158000DA03D093DB03C093DC031092DD031092E7
:10159000DE031092DF031092E0031092E10361E09A
:1015A00082ED93E00E948E0510922E0310922D037F
:1015B000D0922C03C0922B0386E280932F03F092EB
:1015C000300387E280933103009332031093330397
:1015D000D0933403C093350310923603109237032F
:1015E000109238031092390310923A0361E08BE2B3
:1015F00093E00E948E051092650310926903109289
:10160000680310926A0387E192E0909364038093E9
:101610006303EFE7F3E0108214821382158236969B
:1016200083E0EB3BF807B9F783E092E09093C603C1
:101630008093C50380E092E09093C8038093C70332
:1016400084E08093C90383E08093CA0387E092E03B
:101650009093C4038093C3038AE090E09093CC03FB
:101660008093CB0384EF91E09093CE038093CD03DE
:101670001092D1031092D0031092BF031092C003B6
:101680001092C1031092C2031092CF03DF91CF9149
:101690001F910F91FF90DF90CF9008955058BB2776
:1016A000AA270E94660B0C94D90C0E94CB0C38F030
:1016B0000E94D20C20F039F49F3F19F426F40C94C8
:1016C000C80C0EF4E095E7FB0C94C20CE92F0E94C5
:1016D000EA0C58F3BA17620773078407950720F0DE
:1016E00079F4A6F50C940C0D0EF4E0950B2EBA2FA0
:1016F000A02D0B01B90190010C01CA01A001112418
:10170000FF27591B99F0593F50F4503E68F11A16C3
:10171000F040A22F232F342F4427585FF3CF469554
:1017200037952795A795F0405395C9F77EF41F1676
:10173000BA0B620B730B840BBAF09150A1F0FF0F40
:10174000BB1F661F771F881FC2F70EC0BA0F621F2C
:10175000731F841F48F4879577956795B795F7951C
:101760009E3F08F0B0CF9395880F08F09927EE0FB1
:101770009795879508950E949E0C08F481E008953E
:101780000E94D40B0C94D90C0E94D20C58F00E94E9
:10179000CB0C40F029F45F3F29F00C94C20C51119E
:1017A0000C940D0D0C94C80C0E94EA0C68F399235C
:1017B000B1F3552391F3951B550BBB27AA2762174D
:1017C0007307840738F09F5F5F4F220F331F441F5A
:1017D000AA1FA9F335D00E2E3AF0E0E832D091508E
:1017E0005040E695001CCAF72BD0FE2F29D0660F7B
:1017F000771F881FBB1F261737074807AB07B0E8BE
:1018000009F0BB0B802DBF01FF2793585F4F3AF0C3
:101810009E3F510578F00C94C20C0C940D0D5F3F67
:10182000E4F3983ED4F3869577956795B795F79549
:101830009F5FC9F7880F911D9695879597F9089531
:10184000E1E0660F771F881FBB1F621773078407CD
:10185000BA0720F0621B730B840BBA0BEE1F88F7DC
:10186000E09508950E94F20C88F09F5798F0B92FE8
:101870009927B751B0F0E1F0660F771F881F991FC5
:101880001AF0BA95C9F714C0B13091F00E940C0D4E
:10189000B1E008950C940C0D672F782F8827B85F5E
:1018A00039F0B93FCCF3869577956795B395D9F71D
:1018B0003EF490958095709561957F4F8F4F9F4F27
:1018C0000895E89409C097FB3EF490958095709533
:1018D00061957F4F8F4F9F4F9923A9F0F92F96E97C
:1018E000BB279395F695879577956795B795F111F1
:1018F000F8CFFAF4BB0F11F460FF1BC06F5F7F4F8E
:101900008F4F9F4F16C0882311F096E911C077239F
:1019100021F09EE8872F762F05C0662371F096E8A8
:10192000862F70E060E02AF09A95660F771F881F77
:10193000DAF7880F9695879597F90895990F00081B
:10194000550FAA0BE0E8FEEF16161706E807F90791
:10195000C0F012161306E407F50798F0621B730B2C
:10196000840B950B39F40A2661F0232B242B252BAD
:1019700021F408950A2609F4A140A6958FEF811D50
:10198000811D089597F99F6780E870E060E00895F1
:101990009FEF80EC089500240A9416161706180687
:1019A0000906089500240A94121613061406050663
:1019B0000895092E0394000C11F4882352F0BB0FF4
:1019C00040F4BF2B11F460FF04C06F5F7F4F8F4F57
:1019D0009F4F089557FD9058440F551F59F05F3F92
:1019E00071F04795880F97FB991F61F09F3F79F041
:1019F00087950895121613061406551FF2CF4695C3
:101A0000F1DF08C0161617061806991FF1CF869544
:101A10007105610508940895E894BB276627772728
:101A2000CB0197F908950E949E0C08F48FEF08955A
:101A30000E942B0D0C94D90C0E94CB0C38F00E9404
:101A4000D20C20F0952311F00C94C20C0C94C80C0D
:101A500011240C940D0D0E94EA0C70F3959FC1F3B4
:101A6000950F50E0551F629FF001729FBB27F00D4C
:101A7000B11D639FAA27F00DB11DAA1F649F6627A1
:101A8000B00DA11D661F829F2227B00DA11D621FF0
:101A9000739FB00DA11D621F839FA00D611D221FAA
:101AA000749F3327A00D611D231F849F600D211D8E
:101AB000822F762F6A2F11249F5750409AF0F1F011
:101AC00088234AF0EE0FFF1FBB1F661F771F881F7A
:101AD00091505040A9F79E3F510580F00C94C20CE4
:101AE0000C940D0D5F3FE4F3983ED4F38695779503
:101AF0006795B795F795E7959F5FC1F7FE2B880F20
:101B0000911D9695879597F908950E949E0C880BD4
:101B1000990B0895A1E21A2EAA1BBB1BFD010DC053
:101B2000AA1FBB1FEE1FFF1FA217B307E407F5078D
:101B300020F0A21BB30BE40BF50B661F771F881F69
:101B4000991F1A9469F760957095809590959B01FF
:101B5000AC01BD01CF010895EE0FFF1F881F8BBFA1
:0C1B60000790F691E02D1994F894FFCF47
:101B6C001213140E0F101131323334353637383915
:101B7C002A3023000000002903E902B8020000000B
:101B8C00008304FB01850384030D0A006E616E0063
:101B9C00696E66006F766600534946524559490096
:101BAC00474952494E495A00424547554D2D414CE3
:101BBC00494F534D414E00414B494C4C49204556E1
:101BCC000059414E444900425552414C4152005932
:101BDC00554B53454B20534943414B4C494B2121C9
:101BEC000044494B4B4154212100484154454B453D
:101BFC005400414C47494C414E44490053494341E0
:101C0C004B4C494B2059554B53454B200020202021
:101C1C00202000534943414B4C494B20415A414CE5
:101C2C0044492000534943414B4C494B204E4F52A1
:101C3C004D414C200053494652453A200023003078
:101C4C003030300047697269732042617361726988
:101C5C006C692100486F7367656C64696E697A20E2
:101C6C003A29202000534946524520484154414CC2
:101C7C00490054656B7261722044656E6579696EBA
:041C8C00697A000071
:00000001FF
